S00B000045564D2E7372656331
S11300000C942A000C9447000C9447000C9447006D
S11300100C9447000C9447000C9447000C94470040
S11300200C9447000C9447000C9447000C94470030
S11300300C9447000C9447000C9447000C94470020
S11300400C9447000C9447000C9447000C94470010
S11300500C94470011241FBECFE5D8E0DEBFCDBF0E
S113006010E0A0E6B0E0E2E6FEE002C005900D92EA
S1130070A037B107D9F710E0A0E7B0E001C01D92A6
S1130080A837B107E1F70E941A030C942F070C94C8
S1130090000040E00E945C0008950E94CB01089596
S11300A041E00E945C00089541E00E94ED00089543
S11300B040E00E94ED000895843409F471C0853451
S11300C048F4823499F1833408F04DC0813409F046
S11300D083C00FC0823651F1833620F4813609F093
S11300E07BC007C0833609F43EC0843609F074C06F
S11300F057C0413069F42AB381E090E0AC0102C0FA
S1130100440F551F6A95E2F7BA01622B6ABB089542
S11301102AB381E090E0AC0102C0440F551F6A95F8
S1130120E2F7BA01609562236ABB0895413069F42D
S113013027B381E090E0AC0102C0440F551F6A95DB
S1130140E2F7BA01622B67BB089527B381E090E020
S1130150AC0102C0440F551F6A95E2F7BA016095DD
S1130160622367BB0895413069F424B381E090E0D1
S1130170AC0102C0440F551F6A95E2F7BA01622B25
S113018064BB089524B381E090E0AC0102C0440F45
S1130190551F6A95E2F7BA016095622364BB08951E
S11301A0413069F421B381E090E0AC0102C0440F16
S11301B0551F6A95E2F7BA01622B61BB089521B31A
S11301C081E090E0AC0102C0440F551F6A95E2F74C
S11301D0BA016095622361BB0895843409F471C047
S11301E0853448F4823499F1833408F04DC0813465
S11301F009F083C00FC0823651F1833620F4813672
S113020009F07BC007C0833609F43EC0843609F088
S113021074C057C0413069F42BB381E090E0AC0165
S113022002C0440F551F6A95E2F7BA01622B6BBBFB
S113023008952BB381E090E0AC0102C0440F551F38
S11302406A95E2F7BA01609562236BBB0895413069
S113025069F428B381E090E0AC0102C0440F551F5B
S11302606A95E2F7BA01622B68BB089528B381E06E
S113027090E0AC0102C0440F551F6A95E2F7BA0141
S11302806095622368BB0895413069F425B381E029
S113029090E0AC0102C0440F551F6A95E2F7BA0121
S11302A0622B65BB089525B381E090E0AC0102C0E8
S11302B0440F551F6A95E2F7BA016095622365BB46
S11302C00895413069F422B381E090E0AC0102C0AA
S11302D0440F551F6A95E2F7BA01622B62BB089579
S11302E022B381E090E0AC0102C0440F551F6A952F
S11302F0E2F7BA016095622362BB0895843409F47D
S11303003DC0853440F48234F9F0833450F58134AF
S113031009F040C00CC08236B9F0833618F4813637
S1130320C9F505C08336E9F08436A1F527C02BB39F
S113033081E090E0AC0102C0440F551F6A95E2F7DA
S1130340BA0162276BBB089528B381E090E0AC0149
S113035002C0440F551F6A95E2F7BA01622768BBD1
S1130360089525B381E090E0AC0102C0440F551F0D
S11303706A95E2F7BA01622765BB089522B381E06A
S113038090E0AC0102C0440F551F6A95E2F7BA0130
S1130390622762BB0895843409F451C0853440F463
S11303A0823439F18334C0F5813409F05AC00EC067
S11303B08236F9F0833620F4813609F052C006C043
S11303C0833651F1843609F04CC039C029B381E039
S11303D090E0062E02C0880F991F0A94E2F730E0DD
S11303E08223932302C0959587956A95E2F7982F07
S11303F038C026B381E090E0062E02C0880F991F12
S11304000A94E2F730E08223932302C095958795FE
S11304106A95E2F7982F25C023B381E090E0062E79
S113042002C0880F991F0A94E2F730E082239323D5
S113043002C0959587956A95E2F7982F12C020B36C
S113044081E090E0062E02C0880F991F0A94E2F71B
S113045030E08223932302C0959587956A95E2F74D
S1130460982F892F08958434D9F0853438F4823450
S113047099F0833498F48134A1F40CC0823661F08D
S1130480833618F4813669F405C0833639F084362E
S113049041F406C06ABB089567BB089564BB089520
S11304A061BB08958434D9F0853438F4823499F0EA
S11304B0833498F48134A1F40CC0823661F083361D
S11304C018F4813669F405C0833639F0843641F472
S11304D006C06BBB089568BB089565BB089562BBF5
S11304E008958434D9F0853438F4823499F083340F
S11304F098F48134A1F40CC0823661F0833618F488
S1130500813669F405C0833639F0843641F406C077
S113051099B305C096B303C093B301C090B3892FB8
S11305200895843409F1853438F48234A9F083348D
S1130530B8F48134E1F40CC0823671F0833618F4D7
S11305408136A9F405C0833659F0843681F40CC091
S11305508BB380958BBB089588B3809588BB089531
S113056085B3809585BB089582B3809582BB089539
S11305701F93CF93DF93D82FC62F142F40E00E94F0
S11305805C008D2F6C2F412F0E94ED00DF91CF91E5
S11305901F9108956F70823489F0833418F4813484
S11305A009F505C0833489F08434E1F415C08BB3B4
S11305B0807F8BBB8BB3682B6BBB089588B3807F24
S11305C088BB88B3682B68BB089585B3807F85BBDF
S11305D085B3682B65BB089582B3807F82BB82B3E9
S11305E0682B62BB08956295607F823481F0833406
S11305F018F48134F1F405C0833479F08434C9F4F7
S113060012C08BB38F708BBB8BB3862B8BBB88B321
S11306108F7088BB88B3862B88BB85B38F7085BBEE
S113062085B3862B85BB82B38F7082BB82B3682B64
S113063062BB08950E94600684E463E00E9449005E
S113064084E464E00E94490084E465E00E94490077
S113065084E466E00E94490084E467E00E94490063
S113066084E460E00E94500080E690E00E94E1068D
S113067081E06AE00E94FA0684E690E00E94E106C6
S113068082E061E00E94FA0688E690E00E94E106BA
S113069082E06AE00E94FA068CE690E00E94E1069D
S11306A00F2EF8EEEF2EF3E0FF2EF02D04E610E00F
S11306B0CAE0D0E084E463E00E944D00813009F098
S11306C092C0809176009091770001969093770084
S11306D08093760081E063E00E94FA0684E460E09F
S11306E00E94540080917600909177008A309105A1
S11306F020F4805D0E94BF0676C08436910590F494
S1130700BE010E941B07862F805D0E94BF06809158
S1130710760090917700BE010E941B07805D0E94C5
S1130720BF0661C023E0883E920718F5B8010E9415
S11307301B07862F805D0E94BF06809176009091F2
S11307407700BE010E941B07CB01BE010E941B075C
S1130750805D0E94BF068091760090917700B80179
S11307600E941B07BE010E941B07805D0E94BF06FA
S11307703AC0A7E280319A07B0F5B7010E941B077F
S1130780862F805D0E94BF0680917600909177004D
S1130790B8010E941B07CB01BE010E941B07805DAC
S11307A00E94BF068091760090917700B7010E9465
S11307B01B07BE010E941B07CB01BE010E941B0741
S11307C0805D0E94BF068091760090917700B7010A
S11307D00E941B07B8010E941B07BE010E941B0751
S11307E0805D0E94BF0684E464E00E944D00813075
S11307F009F092C0809174009091750001969093D5
S113080075008093740081E06CE00E94FA0684E431
S113081060E00E94540080917400909175008A30C9
S1130820910520F4805D0E94BF0676C08436910550
S113083090F4BE010E941B07862F805D0E94BF06B4
S11308408091740090917500BE010E941B07805D29
S11308500E94BF0661C0B3E0883E9B0718F5B8014B
S11308600E941B07862F805D0E94BF068091740042
S113087090917500BE010E941B07CB01BE010E942E
S11308801B07805D0E94BF068091740090917500E3
S1130890B8010E941B07BE010E941B07805D0E94D5
S11308A0BF063AC027E280319207B0F5B7010E9433
S11308B01B07862F805D0E94BF0680917400909173
S11308C07500B8010E941B07CB01BE010E941B07E3
S11308D0805D0E94BF068091740090917500B701FD
S11308E00E941B07BE010E941B07CB01BE010E9490
S11308F01B07805D0E94BF06809174009091750073
S1130900B7010E941B07B8010E941B07BE010E9489
S11309101B07805D0E94BF0684E465E00E944D00D1
S1130920813009F092C08091720090917300019619
S1130930909373008093720082E063E00E94FA0651
S113094084E460E00E9454008091720090917300EE
S11309508A30910520F4805D0E94BF0676C08436FB
S1130960910590F4BE010E941B07862F805D0E94B2
S1130970BF068091720090917300BE010E941B0714
S1130980805D0E94BF0661C0A3E0883E9A0718F507
S1130990B8010E941B07862F805D0E94BF068091CC
S11309A0720090917300BE010E941B07CB01BE012F
S11309B00E941B07805D0E94BF0680917200909187
S11309C07300B8010E941B07BE010E941B07805DD3
S11309D00E94BF063AC0B7E280319B07B0F5B70169
S11309E00E941B07862F805D0E94BF0680917200C3
S11309F090917300B8010E941B07CB01BE010E94B5
S1130A001B07805D0E94BF06809172009091730065
S1130A10B7010E941B07BE010E941B07CB01BE0148
S1130A200E941B07805D0E94BF0680917200909116
S1130A307300B7010E941B07B8010E941B07BE0187
S1130A400E941B07805D0E94BF0684E466E00E944A
S1130A504D00813009F092C0809170009091710036
S1130A600196909371008093700082E06CE00E9484
S1130A70FA0684E460E00E94540080917000909132
S1130A8071008A30910520F4805D0E94BF0676C013
S1130A908436910590F4BE010E941B07862F805D69
S1130AA00E94BF068091700090917100BE010E9467
S1130AB01B07805D0E94BF0661C023E0883E920749
S1130AC018F5B8010E941B07862F805D0E94BF069F
S1130AD08091700090917100BE010E941B07CB01B0
S1130AE0BE010E941B07805D0E94BF0680917000BA
S1130AF090917100B8010E941B07BE010E941B0760
S1130B00805D0E94BF063AC0A7E280319A07B0F523
S1130B10B7010E941B07862F805D0E94BF0680914B
S1130B20700090917100B8010E941B07CB01BE01B7
S1130B300E941B07805D0E94BF0680917000909107
S1130B407100B7010E941B07BE010E941B07CB0165
S1130B50BE010E941B07805D0E94BF068091700049
S1130B6090917100B7010E941B07B8010E941B07F6
S1130B70BE010E941B07805D0E94BF0684E467E0FB
S1130B800E944D00813009F054C0109271001092FF
S1130B9070001092730010927200109275001092FF
S1130BA07400109277001092760084E460E00E9452
S1130BB0540081E063E00E94FA0680E30E94BF06CD
S1130BC080E80E94BF0680E80E94BF0680E80E9479
S1130BD0BF0681E06CE00E94FA0680E30E94BF0633
S1130BE080E80E94BF0680E80E94BF0680E80E9459
S1130BF0BF0682E063E00E94FA0680E30E94BF061B
S1130C0080E80E94BF0680E80E94BF0680E80E9438
S1130C10BF0682E06CE00E94FA0680E30E94BF06F1
S1130C2080E80E94BF0680E80E94BF0680E80E9418
S1130C30BF068FE39DE0A3E081509040A040E1F720
S1130C4000C0000084E460E00E94580033CD82E4D8
S1130C5060E041E00E94ED008FE99FE00197F1F729
S1130C6000C0000082E460E040E00E94ED008FE9F3
S1130C709FE00197F1F700C000000895CF93C82FBB
S1130C80682F62956F7081E40E94F30282E461E050
S1130C9040E00E94ED000E94270681E46C2F0E9430
S1130CA0F30282E461E040E00E94ED000E94270626
S1130CB08FEC97E00197F1F700C00000CF91089501
S1130CC08FEF91EEA4E081509040A040E1F700C086
S1130CD0000081E464E041E00E945C0081E465E09E
S1130CE041E00E945C0081E466E041E00E945C0017
S1130CF081E467E041E00E945C0082E460E041E05E
S1130D000E945C0082E462E041E00E945C0082E4B4
S1130D1061E041E00E945C0082E462E040E00E9405
S1130D20ED0082E00E943E06AFE1BEE41197F1F7C8
S1130D3000C0000088E20E943E068FEC97E0019715
S1130D40F1F700C000008CE00E943E06AFECB7E073
S1130D501197F1F700C0000081E00E943E068FE188
S1130D609EE40197F1F700C0000086E00E943E0671
S1130D70AFECB7E01197F1F700C000000895CF93EE
S1130D80C82F682F62956F7081E40E94F30282E499
S1130D9061E041E00E94ED000E94270681E46C2F8F
S1130DA00E94F30282E461E041E00E94ED000E94AF
S1130DB027068FEC97E00197F1F700C00000CF9170
S1130DC00895CF93DF93EC018881882331F0219635
S1130DD00E94BF0689918823D9F7DF91CF910895A6
S1130DE081E00E943E068FE19EE40197F1F700C086
S1130DF000000895282F2150223070F4613170F4DE
S1130E00662371F0813019F4962F91580AC082300C
S1130E1041F4962F915405C090E803C090E801C0B6
S1130E2090E8892F0E943E068FEC97E00197F1F736
S1130E3000C000000895AA1BBB1B51E107C0AA1FF4
S1130E40BB1FA617B70710F0A61BB70B881F991F67
S1130E505A95A9F780959095BC01CD010895F89411
S1050E60FFCFBE
S1130E62413D3000423D3000433D3000443D3000BE
S9030000FC
